:020000001D28B9
:100008007E1480310B1C09280A281B282700131C82
:100018000E280F2817280130F5000030F600FE30B2
:10002800F00070089305FE30F00070088B057E1014
:1000380009001E28F501F6017E10200023288031D2
:100048006A20803122009801910121009D0122003F
:100058009701230097147F30210095000C14FE307F
:10006800F400740823008C0524000C14FD30F400FF
:10007800740821008C05C930F400740823008C052D
:100088003630F400740822008C0424008C15FE30ED
:10009800F40074082700910512148B158B17FE3095
:1000A800F40074089305FE30F40074088B0575039A
:1000B8007604031D60286128672880316A20803112
:1000C800F501F6015B2863005B281D280730200036
:1000D8009C00F201F30120009A011A0A031D7528F9
:1000E800762871280130F2070030F33D7308803A12
:1000F800F10080307102031D832828307202031C2E
:0C010800862887286F2820009C01080032
:020000040001F9
:04000E00E439FF3E94
:00000001FF
